{
  "contractName": "HelloWorld",
  "abi": [
    {
      "constant": true,
      "inputs": [],
      "name": "getName",
      "outputs": [
        {
          "name": "_name",
          "type": "bytes32"
        }
      ],
      "payable": false,
      "stateMutability": "view",
      "type": "function"
    },
    {
      "constant": false,
      "inputs": [
        {
          "name": "_name",
          "type": "bytes32"
        }
      ],
      "name": "setName",
      "outputs": [
        {
          "name": "_newName",
          "type": "bytes32"
        }
      ],
      "payable": false,
      "stateMutability": "nonpayable",
      "type": "function"
    },
    {
      "inputs": [],
      "payable": false,
      "stateMutability": "nonpayable",
      "type": "constructor"
    }
  ],
  "bytecode": "0x6060604052341561000f57600080fd5b6000600102600081600019169055506101088061002d6000396000f3006060604052600436106049576000357c0100000000000000000000000000000000000000000000000000000000900463ffffffff16806317d7de7c14604e5780635ac801fe14607c575b600080fd5b3415605857600080fd5b605e60bc565b60405180826000191660001916815260200191505060405180910390f35b3415608657600080fd5b609e60048080356000191690602001909190505060c5565b60405180826000191660001916815260200191505060405180910390f35b60008054905090565b6000816000816000191690555060005490509190505600a165627a7a7230582071865f4589cfd4fa3feec40ac548c1acb2a1962fb68d136b89719ffe67be0d160029",
  "source": "pragma solidity ^0.4.17;\r\n\r\ncontract HelloWorld {\r\n\r\n  bytes32 name;\r\n\r\n  function HelloWorld() public {\r\n    name = 0x0;\r\n  }\r\n\r\n  function setName(bytes32 _name) public returns (bytes32 _newName) {\r\n    name = _name;\r\n    return name;\r\n  }\r\n\r\n  function getName() constant public returns (bytes32 _name) {\r\n    return name;\r\n  }\r\n  \r\n}",
  "sourcePath": "/mnt/c/projects/blockchain/blockchain-simple-html5/contracts/HelloWorld.sol",
  "compiler": {
    "name": "solc",
    "version": "0.4.18+commit.9cf6e910.Emscripten.clang"
  },
  "schemaVersion": "1.0.1",
  "updatedAt": "2017-12-07T01:08:55.992Z"
}